:1000000000800020BD01000001530000B952000033
:10001000B9520000B9520000B9520000B9520000B4
:10002000B9520000B9520000B9520000015300005B
:1000300001530000B95200007167000075680000AC
:100040000153000001530000015300000153000060
:100050000153000001530000015300000153000050
:100060000153000001530000015300000153000040
:100070000153000001530000015300000153000030
:100080000153000001530000015300000153000020
:100090000153000001530000015300000153000010
:1000A0000153000001530000015300000153000000
:1000B00001530000015300000153000001530000F0
:1000C00001530000015300000153000001530000E0
:1000D00001530000015300000153000001530000D0
:1000E00001530000015300000153000001530000C0
:1000F000015300009970000001530000C571000019
:1001000001530000F1720000015300000153000090
:10011000015300000153000001530000015300008F
:10012000015300000153000001530000015300007F
:10013000015300000153000001530000015300006F
:10014000015300000153000001530000015300005F
:10015000015300000153000001530000015300004F
:10016000954A0000A9570000015300000153000008
:10017000015300000153000001530000015300002F
:10018000015300000153000001530000015300001F
:10019000015300000153000001530000015300000F
:1001A00001530000015300000153000001530000FF
:1001B000015300000153000001530000564B4CF264
:1001C000205210B51A804DF628121A8000BF00BFC9
:1001D00005F09AF8514B4FF010621A60504A9A603D
:1001E000504ADA60504A136813F4807304D14F49BF
:1001F0000B604FF4A85313604D4B1A78110703D5C9
:100200001A7842F008021A704A4B4B492A221A7097
:100210004A4A4B4B8B4204D252F8040F43F8040B6A
:10022000F8E7484B484900228B4202D243F8042B9E
:10023000FAE74649464A002352F8230041F82300D2
:1002400001336F2BF8D1434B434A802103F8011B44
:100250009342FBD1414B3D4A1A60414B8A221A70AE
:10026000A3F5805324225A70A0221A709A7992071B
:10027000FCD59A79D406FCD43A4A937903F00C035E
:10028000082B384BF9D103221A7140225A719A79FE
:100290009006FCD5334A9179324B4906FBD5324A58
:1002A000324911600221516020221A709A7902F0BD
:1002B0000C020C2AFAD12E4B2E4A1A602E4B2F4AD2
:1002C0001A6000225A60072243F8042C2C4AC3F813
:1002D0000C2D62B605F01EF9144B1B68DA0705D524
:1002E000284805F0ABF8284B284A1A60284B1B78A1
:1002F0005B0609D5244C254B22689A4204D121483B
:1003000005F09CF80023236008F022F905F002F8BC
:1003100006F02EFBFEE700BF0E20054030800440B3
:10032000823F04000100002B10D0034014D0034092
:1003300002D0074000E007408490FF1FD4A20000D5
:100340002087FF1F8490FF1F609BFF1F0082FF1FFD
:100350000000000000E400E05FE400E008ED00E0E1
:100360000050064000400640448004400000030165
:1003700004800440C010050014E000E0FF76010096
:1003800000002020B5C9D25E1CE00340A5C3945AEA
:1003900000F00740FFFFFFFFFFFFFFFFFFFFFFFF32
:1003A000FFFFFFFFFFFFFFFFFFFFFFFFFFFFFFFF5D
:1003B000FFFFFFFFFFFFFFFFFFFFFFFFFFFFFFFF4D
:1003C000FFFFFFFFFFFFFFFFFFFFFFFFFFFFFFFF3D
:1003D000FFFFFFFFFFFFFFFFFFFFFFFFFFFFFFFF2D
:1003E000FFFFFFFFFFFFFFFFFFFFFFFFFFFFFFFF1D
:1003F000FFFFFFFFFFFFFFFFFFFFFFFFFFFFFFFF0D
:10040000FFFFFFFFFFFFFFFFFFFFFFFFDEF9FFFF23
:1004100010B5054C237833B9044B13B10448AFF33E
:1004200000800123237010BD8490FF1F0000000096
:10043000D8A20000084B10B51BB108490848AFF31B
:1004400000800848036803B910BD074B002BFBD0A0
:10045000BDE81040184700BF000000008890FF1F53
:10046000D8A200008490FF1F0000000043680B70BA
:1004700043681B0A4B70C3888B70C379CB70836849
:100480000B7183681B0A4B7143898B71C37ACB71E3
:10049000082070470B7843604A7843EA02234360A0
:1004A0008A7843EA02434360CA7843EA02634360BE
:1004B0000B7983604A7943EA022383608A7943EAAD
:1004C00002438360CA7943EA02638360082070476D
:1004D00000487047849900000048704794990000D4
:1004E000F0B50C460A788280064614F8010F002306
:1004F00042EA0022B2801A4614F8010F98400833ED
:10050000202B42EA0002F7D1971D062F58D901F19E
:10051000050E551D73464C1913F8010F03F8010C15
:10052000A342F9D100234B5518460D44C6F808E004
:1005300015F8014F84400830202843EA0403F7D11E
:10054000381D0344834209D909320A440446013460
:1005500012F8015F02F8015CA342F8D80138CF1805
:100560000024084407F8014C2246F06017F8015BAC
:1005700095400832202A44EA0504F7D1181D0444A6
:10058000A04209D203330B440246013213F8015F43
:1005900003F8015CA242F8D30D1901380844002386
:1005A00005F8013C3061A8786B780A5DED780104AC
:1005B00041EA0323134343EA0563201D7361F0BD41
:1005C000551D01F1050EADE700487047B8990000D0
:1005D00000487047D49900000B78F0B403710023F1
:1005E00006460C461D4614F8012F9A400833202B6E
:1005F00045EA0205F7D1681D052801F1040708D96D
:100600002C1D3B460C4413F8012F03F8012C9C428F
:10061000F9D10D4400232B71B760F0BC704700BFC7
:1006200000487047F8990000004870470C9A000095
:100630000048704708A0000000487047309A00004A
:1006400003790B70012070470B780371012070470C
:1006500000487047549A000000487047649A0000B0
:1006600043680B701A0C10B41C0A1B0E4C708A7075
:10067000CB7083680B711C0A1A0C1B0E4C718A71AB
:10068000CB71C3680B721C0A1A0C1B0E4C728A7257
:10069000CB7203690B73180A1A0C1B0E48738A730A
:1006A0001020CB7310BC70470B6843604B688360AD
:1006B0008B68C360CB6803611020704700487047A7
:1006C000889A0000004870479C9A0000F0B40B78AC
:1006D00043604A7843EA022343608A7843EA02434C
:1006E0004360CA7843EA026343600B7983604A79C6
:1006F00043EA022383608A7943EA02438360CA792A
:1007000043EA026383600B7AC3604A7A43EA0223B6
:10071000C3608A7A0C4643EA0242C26014F80B5F57
:10072000002342EA0562C2601D4614F8012F9A4078
:100730000833202B45EA0205F7D105F11006102EEB
:1007400001F10F0709D905F10F043B460C4413F8DA
:10075000012F03F8012C9C42F9D129440023CB73CB
:1007600007613046F0BC704700487047C09A0000EF
:1007700000487047D09A000000487047F49A000083
:1007800000487047049B000000487047289B000009
:1007900000487047449B000000487047689B000079
:1007A00000487047809B000000487047A49B0000F1
:1007B00000487047BC9B0000406B70470048704782
:1007C000A49B000000487047BC9B0000406A704733
:1007D00000487047889A0000004870479C9A0000C3
:1007E0000B78037443690C30184700BF8069704769
:1007F00000487047549A000000487047649A00000F
:1008000090F8F804704700BF01790C2004F028BE6E
:10081000F0B5044683B0C0680C4D07F067FEC7B260
:10082000606807F063FEC6B2A06807F05FFEC0B262
:1008300000903B4628463246002104F07DF82846C9
:1008400003B0BDE8F04003F065BF00BFA897FF1FED
:10085000F0B5044683B0C0680C4D07F047FEC7B240
:10086000606807F043FEC6B2A06807F03FFEC0B262
:1008700000903B4628463246012104F05DF82846A8
:1008800003B0BDE8F04003F045BF00BFA897FF1FCD
:10089000F0B5044683B0C0680C4D07F027FEC7B220
:1008A000606807F023FEC6B2A06807F01FFEC0B262
:1008B00000903B4628463246022104F03DF8284687
:1008C00003B0BDE8F04003F025BF00BFA897FF1FAD
:1008D000F0B5044683B0C0680C4D07F007FEC7B200
:1008E000606807F003FEC6B2A06807F0FFFDC0B263
:1008F00000903B4628463246032104F01DF8284666
:1009000003B0BDE8F04003F005BF00BFA897FF1F8C
:10091000F0B5044683B0C0680C4D07F0E7FDC7B2E0
:10092000606807F0E3FDC6B2A06807F0DFFDC0B263
:1009300000903B4628463246042103F0FDFF28463E
:1009400003B0BDE8F04003F0E5BE00BFA897FF1F6D
:10095000436870B50B7043681B0A4B70C3888B707B
:10096000C379CB7083680B7183681B0A4B71438911
:100970008B71C37ACB71C3680B72C3681B0A4B724D
:10098000C3898B72C37BCB72054600690C4608F0A5
:1009900037FB030E010A020C06462073A273617333
:1009A000E373296904F11000324604F05BFA06F1A2
:1009B000100070BD43682DE9F0470B7043681B0AB7
:1009C0004B70C3888B70C379CB704368002B00F0E9
:1009D00085800A4600250426C36853F82530137124
:1009E0001C0C1F0A1B0E94715771D371436801359B
:1009F000AB42344602F1040206F10406ECD804F1DD
:100A0000080204F1050A04F1060904F1070804F1DB
:100A1000090C04F10A0E04F10B0517460C340369A6
:100A20008B5503691B0A01F80A30438A01F8093023
:100A3000C37C01F808300369F3B101EB070E75467A
:100A40000022836953F822300EF822301C0C1E0A53
:100A50001B0EAC706E70EB700369013293423C4622
:100A600005F1040507F10407EBD804F1050C04F1C6
:100A7000060EE51D3A460834C3698B54C3691B0A48
:100A800001F80C30C38B01F80E30C37F4B55C3699E
:100A90000BB30F4680460026D8F8243053F82600C2
:100AA00008F0AEFAB10005463A19002325FA03F022
:100AB0000833202B02F8010BF8D1D8F82430043485
:100AC000381959582A4604F0CDF9D8F81C300136A7
:100AD000B3422C44E0D82046BDE8F08708221746F0
:100AE0000C240B254FF00A0E4FF0090C4FF00708AD
:100AF0004FF006094FF0050A042690E770B5037918
:100B00000B70064680680D4608F07AFA2A460446BD
:100B1000002324FA03F10833202B02F8011FF8D137
:100B2000B168681D224604F09DF9601D70BD00BFCC
:100B3000F8B583880B7083881B0A4B700646806863
:100B40000D4608F05DFA030E010A020C6B71A870E5
:100B50002A71E97002460446B168A81D04F082F9C2
:100B6000F06808F04DFA611D02462944063400235E
:100B700022FA03F00833202B01F8010FF8D10434D6
:100B80002819F168144404F06DF9306908F038FA56
:100B90002A190746002327FA03F10833202B02F80D
:100BA000011BF8D1043428193A46316904F05AF986
:100BB000381973692B540544190A1A0C1B0E6970F5
:100BC000AA70EB700430F8BD084605F0EFBC00BF1A
:100BD00005F002BC2DE9F04F43680C689C4283B0DD
:100BE00005460E4600F2B3806C60002C00F0B88021
:100BF00005F1080C334600274FF0040E9C795A7912
:100C0000197993F80780E868240444EA02220A4329
:100C100042EA0862AA60DCF8002040F827206A68EF
:100C20000137BA42714603F104030EF1040EE5D810
:100C300001F1080847464B1D881DCA1D01F1090A2C
:100C400001F10A0B01F10B0901F10C04305CF35CBA
:100C500016F80E1016F802E02A69000440EA032391
:100C60000B4343EA0E63934200F290802B613BB347
:100C700005F1140CF3194FF0000E9C785A7819788E
:100C800093F80380A869240444EA02220A4342EA52
:100C900008626A61DCF8002040F82E202A690EF113
:100CA000010E72453C4603F1040307F10407E4D842
:100CB00004F1050A04F1060B04F10709B8460834EB
:100CC00016F80B2016F80A0016F8083016F8097006
:100CD000E969120442EA0022134343EA07678F429C
:100CE0004ED8EF617FB30027BC4605F1200E0023EC
:100CF0001946301910F8012B9A400833202B41EA8D
:100D00000201F7D104F104084144884509D2E31CEB
:100D100033444246013213F8010F03F8010C8A42B2
:100D2000F8D3721808F1FF3802F801CC06EB08037B
:100D30002B626A6ADEF8003042F82730EB6901372F
:100D4000BB420C46D3D8204603B0BDE8F08FA100CB
:100D5000C06807F03FFF6C60E860002C7FF448AF8C
:100D60004FF0080847460C244FF00B094FF00A0BD0
:100D70004FF0090A0722062005234FF0040E65E70D
:100D8000B900686A07F026FF6862AAE79900A869B7
:100D9000019307F01FFF019BA86167E7F8B50546BF
:100DA0008068C0F3C7520C460346002A00F0CF808B
:100DB00002F56072110149B2C2F30716C3F3C342D0
:100DC00011435F010022A171D910DB122171227041
:100DD0006270A270E7706371002107F05FFB00286A
:100DE00040F0C780E671E868C0F3C7520346002AA6
:100DF00000F0BC8002F56072110149B2C2F307161F
:100E0000C3F3C34211435F010022A173D910DB1267
:100E1000217322726272A272E7726373002107F07B
:100E20003DFB002840F0BC80E6732869C0F3C75240
:100E30000346002A00F0978002F56072110149B262
:100E4000C2F30716C3F3C34211435F010022A17529
:100E5000D910DB12217522746274A274E774637571
:100E6000002107F01BFB002840F09680E675A8697A
:100E7000C0F3C7520346002A72D002F56072110116
:100E800049B2C2F30716C3F3C34211435F01002204
:100E9000A177D910DB12217722766276A276E776E7
:100EA0006377002107F0FAFA002871D1E677E86944
:100EB000C0F3C7520346002A4FD002F560721101F9
:100EC00049B2C2F30716C3F3C34211435F010022C4
:100ED00084F82610D910DB1284F8241084F820201E
:100EE00084F8212084F8222084F8237084F82530A7
:100EF000002107F0D3FA002845D184F82760286A3A
:100F0000C0F3C75203462AB302F56072110149B219
:100F1000C2F30715C3F3C34211435F010022DE1081
:100F2000DB1284F82E1084F8282084F8292084F815
:100F30002A2084F82B7084F82C6084F82D3000214E
:100F400007F0ACFAC8B984F82F503020F8BD164627
:100F5000114633E715461146DCE716461146B2E75F
:100F6000164611468FE7164611466BE716461146A0
:100F700046E766F07F02E27135E765F07F0284F8AC
:100F80002F203020F8BD66F07F0284F82720B6E7D6
:100F900066F07F02E2778AE766F07F02E27566E735
:100FA00066F07F02E27340E7F8B506464068C0F39A
:100FB000C7520C460346002A58D002F56072110150
:100FC00049B2C2F30715C3F3C34211435F010022C4
:100FD000A171D910DB12217122706270A270E770CA
:100FE0006371002107F05AFA002848D1E571B06812
:100FF000C0F3C7520346002A3ED002F560721101C9
:1010000049B2C2F30715C3F3C34211435F01002283
:10101000A173D910DB12217322726272A272E7727D
:101020006373002107F03AFA90BBE573F068C0F3F0
:10103000C7520346EAB102F56072110149B2C2F328
:101040000715C3F3C34211435F010022DE10DB1218
:10105000A17522746274A274E77426756375002109
:1010600007F01CFA78B9E5751820F8BD1546114649
:10107000A9E715461146E4E715461146C3E765F0B2
:101080007F02E271B3E765F07F02E2751820F8BDD8
:1010900065F07F02E273C9E70B6803614B68436147
:1010A0008B688361CB68C361036A0C30184700BF4B
:1010B000CA78520970B442610346087942EAC00214
:1010C0005A61487942EAC02058618A79D20402F410
:1010D000F00202435A61CD798E792C0104F4FE644A
:1010E00054EA161403F10C0005D0A4F5607442EA2A
:1010F000C4525A61CD7925F07F0542EA05625A61F2
:10110000CA7A52099A610C7B42EAC4029A614C7B0A
:1011100042EAC4249C618A7BD20402F4F002224396
:101120009A61CD7B8E7B2C0104F4FE6454EA161484
:1011300005D0A4F5607442EAC4529A61CD7B25F0D3
:101140007F0542EA05629A61CA7C5209DA610C7D28
:1011500042EAC402DA614C7D42EAC424DC618A7D41
:10116000D20402F4F0022243DA61CD7D8E7D2C019F
:1011700004F4FE6454EA161405D0A4F5607442EA3F
:10118000C452DA61CD7D25F07F0542EA0562DA615D
:10119000CA7E52095A620C7F42EAC4025A624C7FEC
:1011A00042EAC4245C628A7FD20402F4F002224341
:1011B0005A62CD7F8E7F2C0104F4FE6454EA16142B
:1011C00005D0A4F5607442EAC4525A62CD7F25F07E
:1011D0007F0542EA05625A6291F8232052099A6219
:1011E00091F8244042EAC4029A6291F8254042EA0A
:1011F000C4249C6291F82620D20402F4F002224317
:101200009A6291F8275091F826602C0104F4FE644C
:1012100054EA161406D0A4F5607442EAC4529A62E5
:1012200091F8275025F07F0542EA05629A6291F80D
:101230002B205209DA6291F82C4042EAC402DA62A9
:1012400091F82D4042EAC424DC6291F82E20D204A9
:1012500002F4F0022243DA6291F82F5091F82E60E6
:101260002C0104F4FE6454EA161406D0A4F560744C
:1012700042EAC452DA6291F82F5025F07F0542EA23
:101280000562DA6270BC1B6B184700BFCB785B0944
:1012900030B483600A7943EAC20383604A7943EA3F
:1012A000C22282608B79DB0403F4F0031343836072
:1012B000CC798D79220102F4FE6252EA151205D032
:1012C000A2F5607243EAC2538360CC7924F07F04B4
:1012D00043EA04638360CB7A5B09C3600A7B43EA19
:1012E000C203C3604A7B43EAC222C2608B7BDB0439
:1012F00003F4F0031343C360CC7B8D7B220102F423
:10130000FE6252EA151205D0A2F5607243EAC2539A
:10131000C360CC7B24F07F0443EA0463C360CB7CCE
:101320005B0903610A7D43EAC20303614A7D43EA24
:10133000C22202618B7DDB0403F4F00313430361DB
:10134000CC7D8D7D220102F4FE6252EA151205D099
:10135000A2F5607243EAC2530361CC7D24F07F049E
:1013600043EA04630361CB7E5B0983610A7F43EA3E
:10137000C20383614A7F43EAC22282618B7FDB041E
:1013800003F4F00313438361CC7F8D7F220102F4C9
:10139000FE6252EA151205D0A2F5607243EAC2530A
:1013A0008361CC7F24F07F0443EA0463836191F876
:1013B00023305B09C36191F8242043EAC203C3616F
:1013C00091F8252043EAC222C26191F82630DB045D
:1013D00003F4F0031343C36191F8274091F82650BA
:1013E000220102F4FE6252EA151206D0A2F56072E2
:1013F00043EAC253C36191F8274024F07F0443EAD3
:101400000463C36191F82B305B09036291F82C20CF
:1014100043EAC203036291F82D2043EAC22202622A
:1014200091F82E30DB0403F4F0031343036291F8C8
:101430002F4091F82E50220102F4FE6252EA15125A
:1014400006D0A2F5607243EAC253036291F82F40BE
:1014500024F07F0443EA0463036230BC3020704709
:10146000CB785B0930B443600A7943EAC203436036
:101470004A7943EAC22242608B79DB0403F4F00329
:1014800013434360CC798D79220102F4FE6252EA63
:10149000151205D0A2F5607243EAC2534360CC79BD
:1014A00024F07F0443EA04634360CB7A5B098360E2
:1014B0000A7B43EAC20383604A7B43EAC22282601A
:1014C0008B7BDB0403F4F00313438360CC7B8D7BC5
:1014D000220102F4FE6252EA151205D0A2F56072F2
:1014E00043EAC2538360CC7B24F07F0443EA046365
:1014F0008360CB7C5B09C3600A7D43EAC203C3609F
:101500004A7D43EAC222C2608B7DDB0403F4F00310
:101510001343C360CC7D8D7D220102F4FE6252EA4A
:10152000151205D0A2F5607243EAC253C360CC7DA8
:1015300024F07F0443EA0463C36030BC1820704782
:10154000F8B583680B7083681B0A4B7043898B70F6
:10155000C37ACB70C3680B71C3681B0A4B71C38914
:101560008B71C37BCB7103690B7203691B0A4B72CE
:10157000438A8B72C37CCB72054640690C4607F0E8
:101580003FFD030E010A020C2073A273E373617323
:1015900006460246696904F1100003F063FCA219D3
:1015A000AB691374AB691B0A53746B8B9374EB7E3A
:1015B000D374AB6906F1140093B100212B6A53F880
:1015C000213013751F0A1E0C1B0E57759675D375A7
:1015D000AB6901318B4200F1040002F10402EDD845
:1015E0006B6A23546A6A2318120A5A70EA8C9A703A
:1015F00095F82720DA706A6A043092B10021EA6A0D
:1016000052F821201A71160A140C120E5E719C7188
:10161000DA716A6A01318A4200F1040003F10403BD
:10162000EDD8F8BDF8B583680B7083681B0A4B7062
:1016300043898B70C37ACB70C3680B71C3681B0A74
:101640004B71C3898B71C37BCB7103690B720369C7
:101650001B0A4B72438A8B72C37CCB72044640696F
:101660000E4607F0CDFC030E010A020C3073B27374
:10167000F373717305460246616906F1100003F0C9
:10168000F1FBA2697319100C110E170A9874D97422
:101690005F741A74E2691A75100A110C120E5875EB
:1016A0009975DA75226A1A76100A110C120E58769C
:1016B0009976DA76626A1A77100A110C120E587748
:1016C0009977DA77A26A83F82020100A110C120E9B
:1016D00083F8210083F8221083F82320E26A83F83C
:1016E0002420100A110C120E83F8250083F826100E
:1016F00083F8272094F8302083F8282094F83120AC
:1017000083F8292094F8322083F82A2094F8332093
:1017100083F82B20626B83F82C20626B120A83F80B
:101720002D20E28E83F82E2094F8372083F82F2086
:10173000626B3035B2B10021E26B52F8212083F8A0
:101740003020170A100C120E83F8317083F8320023
:1017500083F83320626B01318A4205F1040503F1FD
:101760000403E9D8206C07F04BFC711902460023F2
:1017700022FA03F00833202B01F8010BF8D10435CD
:101780007019216C154403F06DFB606C07F038FC98
:1017900072190746002327FA03F10833202B02F8B9
:1017A000011BF8D104357019616C3A4603F05AFBFD
:1017B0007819F8BD2DE9F0410B7883604A7843EA47
:1017C000022383608A7843EA02438360CA7843EA4B
:1017D000026383600B79C3604A7943EA0223C360E2
:1017E0008A7943EA0243C360CA7943EA0263C36069
:1017F0000B7A03614A7A43EA022303618A7A43EA55
:101800000242026104460F4611F80B0F002342EA20
:10181000006222611E4611F8012F9A400833202BE6
:1018200046EA0206F7D106F11000102807F10F056D
:1018300009D906F10F012B46394413F8012F03F89B
:10184000012C9942F9D107EB0608002388F80F30E4
:10185000656198F8122098F81130395C98F81350A7
:10186000120442EA03220A43A36942EA05659D4243
:1018700006F1140656D8A561F5B1434604F11C0CD7
:101880004FF0000E987D5A7D197D93F81780256AD8
:10189000000440EA02220A4342EA0862E261DCF8FC
:1018A000002045F82E20A2690EF1010E724506F1C6
:1018B000040603F10403E5D807EB0608B95D98F8C0
:1018C000023098F8012098F80350606A1B0443EA3C
:1018D00002220A4342EA0565854206F1040627D83A
:1018E0006562E5B1434604F1280E002798795A79DC
:1018F000197993F807C0E56A000440EA02220A4316
:1019000042EA0C62A262DEF8002045F82720626AF3
:101910000137BA4206F1040603F10403E6D8304663
:10192000BDE8F081A900206A07F054F92062A2E71F
:10193000A900E06A07F04EF9E062D1E72DE9F04135
:101940000B7883604A7843EA022383608A7843EA0B
:1019500002438360CA7843EA026383600B79C36001
:101960004A7943EA0223C3608A7943EA0243C360A7
:10197000CA7943EA0263C3600B7A03614A7A43EA95
:10198000022303618A7A43EA0242026106460F4655
:1019900011F80B0F002342EA006232611C4611F875
:1019A000012F9A400833202B44EA0204F7D104F1B6
:1019B0001000102807F10F0E09D904F10F0173462A
:1019C000394413F8012F03F8012C9942F9D13D193C
:1019D0000023EB73C6F814E0A97C6B7C3A5CE87CCE
:1019E000090441EA0323134343EA0063B361A97D79
:1019F0006B7D2A7DE87D090441EA0323134343EA12
:101A00000063F361A97E6B7E2A7EE87E090441EAC9
:101A10000323134343EA00633362A97F6B7F2A7F6A
:101A2000E87F090441EA0323134343EA0063736236
:101A300095F8221095F8213095F8202095F823008C
:101A4000090441EA0323134343EA0063B36295F8B0
:101A5000261095F8253095F8242095F827000904DC
:101A600041EA0323134343EA0063F36295F8283005
:101A700086F8303095F8293086F8313095F82A30DC
:101A800086F8323095F82B3086F8333095F82E30C2
:101A900095F82D1095F82C2095F82F801B0443EA1B
:101AA00001231343726B43EA0868904504F1300444
:101AB00067D8C6F83480B8F1000F21D02B4606F164
:101AC000380C4FF0000E93F8320093F8312093F861
:101AD000301093F83380F56B000440EA02220A4389
:101AE00042EA0862B263DCF8002045F82E20726BEF
:101AF0000EF1010E724504F1040403F10403E2D86F
:101B000000221346381910F8011B91400832202A90
:101B100043EA0103F7D1201D0344984209D203345C
:101B20003C440246013214F8011F04F8011C9A4299
:101B3000F8D30138FC180021384404F8011C0A4687
:101B40003064084614F8011B91400832202A40EA0C
:101B50000100F7D11C1D2044844209D203333B44C9
:101B60002246013213F8011F03F8011C8242F8D308
:101B70003B18013C0022274403F8012C7764BDE8A0
:101B8000F0814FEA8801F06B07F024F8F06390E7EA
:101B9000F0B585B0364A01920368364D03950322AD
:101BA0008DF808201B6834498B425AD10023382114
:101BB000044680F8232205F1300E80F8241280F8C4
:101BC000253280F8263280F8273200F50A772E4633
:101BD0000FCE764538607960BA60FB60354607F114
:101BE0001007F4D103CD00227960C2234FF0FF0E1D
:101BF000FE263D250721386084F8203284F81CE257
:101C000084F81D6284F81E5284F81F2284F8222270
:101C100084F8211204F2212304F25F2001E013F87A
:101C2000011F83420A44FAD1D243144E84F8602241
:101C300004F21B2504F5187703E004F0B7FCBD425D
:101C40000BD0626815F8011F13681B68B342084681
:101C5000F3D010469847BD42F3D14FF0FF3005B0A6
:101C6000F0BD01AA072198474FF0FF3005B0F0BD45
:101C700034950000E09B0000811C0000C90B0000AF
:101C80002DE9F041632984B003DD90F8F874002F4A
:101C900053D0136805460F4610461B6805F22321F2
:101CA0009847C2B2C0F30721561885F81E2247F3A1
:101CB0000722F643FF234FF0FE0EFCB285F82222E6
:101CC000421C85F8206285F81F1285F81C3285F8C1
:101CD0001DE285F821420DDB00F22221294405F2A4
:101CE0002123002201E013F8014F99422244FAD146
:101CF000D343DBB22A1800F10807B7F5007F82F85A
:101D000023321EDC002F05F5077616DD0730DFF8DD
:101D10001081064405F21B2403E004F047FCB442A2
:101D20000BD06A6814F8011F13681B684345084606
:101D3000F3D010469847B442F3D1384604B0BDE81A
:101D4000F081344A0192344C2B68039403228DF8BD
:101D500008201B6831498B4255D10023382185F872
:101D6000232204F1300E85F8241285F8253285F8F7
:101D7000263285F8273205F50A7627460FCF7745B4
:101D800030607160B260F3603C4606F11006F4D139
:101D900003CC00227160C2234FF0FF0EFE273D24CA
:101DA0000721306085F8203285F81CE285F81D7225
:101DB00085F81E4285F81F2285F8222285F8211217
:101DC00005F2212305F25F2001E013F8011F98427C
:101DD0000A44FAD1D243DFF8488085F8602205F240
:101DE0001B2405F5187603E004F0E0FBB4420ED0A6
:101DF0006A6814F8011F13681B6843450846F3D04E
:101E000010469847F2E7284601AA072198474FF065
:101E1000FF3093E734950000E09B0000811C000038
:101E2000C90B0000FFFFFFFF2DE9F04F46A3D3E9E8
:101E3000002385B0CDE9020105F09CFE4FF0000AB9
:101E4000DFF81491424DCDE900010024C927002696
:101E500012E008F10106B81900EBD070B7424FEA62
:101E600060002CDB05F0F6FC05F01AFB04460D467D
:101E700005F0F0FF59F820A02946204605F0EAFFBA
:101E80008046504605F0F8FC02460B4604460D46D7
:101E9000DDE9000105F0D4FF22462B460028D8D109
:101EA000DDE9000105F0AEFF002847D008F1FF375B
:101EB000B81900EBD070B7424FEA6000D2DADFF811
:101EC00098A0DFF890B05AF8270005F0D5FC04463A
:101ED0005BF827000D4605F0BDFC804689465BF89F
:101EE000260005F0B7FC42464B4605F065FB22464E
:101EF000CDE900012B46DDE9020105F05DFB02465C
:101F00000B46DDE9000105F00BFDCDE900015AF8B3
:101F1000260005F0B1FC22462B4605F04DFB02469B
:101F20000B46DDE9000105F025FE42464B4605F073
:101F300045FB05F08FFF05B0BDE8F08F054B53F86A
:101F4000280005B0BDE8F08F00000040019D23404F
:101F50000000594060960000E49C0000FFFFFFFF76
:101F60002DE9F84F0646806805F086FC0446306986
:101F70000D4605F081FC70A3D3E9002383468A4611
:101F800005F040FFD8B1584651466DA3D3E9002370
:101F900005F04CFF002840F0B2800FF2AC19D9E9EF
:101FA00000896BA7D7E90067002200232046294655
:101FB00005F03CFF002874D042464B4611E062A772
:101FC000D7E900670FF28819D9E9008900220023B8
:101FD0002046294605F02AFF002800F08A80324674
:101FE0003B465DA1D1E9000105F0E6FA02460B4649
:101FF00005F0E4FA82468B4602460B462046294607
:1020000005F01EFF002861D1204629460022544BCE
:1020100005F086FC32463B4604460D4605F0CEFAF6
:10202000424606460F464B462046294605F0C6FA6C
:1020300045A3D3E9002304460D463046394605F052
:10204000E1FE002845D144A3D3E9002330463946B8
:1020500005F0F6FE002840D13BA3D3E9002320463B
:10206000294605F0CFFE00283FD13BA3D3E900234A
:102070002046294605F0E4FE98BB39463046FFF776
:10208000D3FE294606462046FFF7CEFE31460446DB
:10209000344802F0EBFC21463348BDE8F84F02F02B
:1020A000E5BC2DA1D1E9000132463B4605F084FA9A
:1020B00002460B4605F082FA82468B4602460B46E4
:1020C0002046294605F0A8FE00289DD054465D46CE
:1020D0009AE71DA7D7E90067BEE71FA7D7E9006702
:1020E000BAE71DA5D5E90045C7E717A5D5E900451D
:1020F000C3E742464B4614A1D1E90001D6E70022CE
:10210000174B58460AF1004105F00AFC0022144B17
:1021100006460F465846514605F002FC002280460E
:10212000894658465146002305F080FE00287FF47A
:102130004DAF39E7AFF30080000000007C42514012
:10214000000000007C4251C0000000007C4241C001
:10215000000000007C42414000000040BC29464095
:102160000000E03FE897FF1FEE97FF1FF0B5344CEB
:10217000344983B04FF0FF3300931A46204602F0F3
:102180002DF9A37843B92E4802F04EF9052003F04B
:1021900073F9A378002BF6D02B482C4E2C4C2D4FE6
:1021A00002F070FA284802F0B5FA01210C2003F081
:1021B0005DF91621284802F053FC1721274802F048
:1021C0004FFC40F2DC51244802F050FC40F2DC515C
:1021D000224802F04BFC0025214B73611820B560AA
:1021E00006F0DEF93062102006F0DAF94FF09F4376
:1021F000DFF874E0F062032101220226102084F847
:102200003320E36123626362A56084F83150C4F82F
:1022100014E0A76284F8306084F8321006F0C0F948
:10222000104BE0634FF4E132C3F8E454C3F8E854D0
:10223000C3F8F054C3F8EC549A6003B0F0BD00BF8B
:102240003497FF1F8087FF1FA897FF1FB897FF1FB6
:102250005096FF1F9A99A940E897FF1FEE97FF1F1E
:102260003087FF1FA090FF1F2487FF1FFFFFFFFF86
:102270002DE9F04FDFF85883CC4CD8F80030CC482B
:1022800091B00493049F02F0CFF82368FB1A092B46
:1022900040F23281DFF820A30026F1B2C448DAF818
:1022A000205002F0BDF905F003FFC24905F04EFED3
:1022B000014605F04DFEBF4906F006F84FF07E518D
:1022C00005F044FE45F826000136062EE5D14FF014
:1022D0000009F1B2B648DAF82CB0B74D02F0A0F917
:1022E000B64BA0F57A7000EB400083FB0023C0439F
:1022F000C00F0136C0EB23200A2E4BF8090009F16C
:102300000409E6D1AE4BA968DE689B683268DFF845
:10231000C49200931846136801314B45A96040F000
:102320004284632804DD96F8F834002B00F0E38043
:102330000AF10C0292E80C08100A1D0A86F82722FE
:1023400086F82802100C120E4FEA112E86F8290288
:1023500086F82A22180C1A0E86F82B3286F82C5290
:102360000B0E0D0C86F8231286F82D0286F82E220D
:10237000584686F824E286F8255286F8263206F07A
:102380003FFE05462B0E2A0C000A86F82F525946AE
:1023900086F8300286F8312286F832322A4606F272
:1023A000332006F2232B02F05DFD0BEB0502DAF879
:1023B00018301374DAF818301B0A5374BAF81A304C
:1023C00093749AF81B30D374DAF818301435B3B11B
:1023D0000021DAF8203053F8213013754FEA132E1C
:1023E000180C1B0E82F815E09075D375DAF81830CA
:1023F00001318B4205F1040502F10402E9D8DAF853
:1024000024300BF80530DAF82430AB441B0A8BF883
:102410000130BAF826308BF802309AF827308BF862
:102420000330DAF824300435C3B10022DAF82C3056
:1024300053F822308BF80430180A190C1B0E8BF855
:1024400005008BF806108BF80730DAF824300132DB
:10245000934205F104050BF1040BE7D8EBB2C5F389
:102460000721009886F81F125A18D243C1B240F3D0
:10247000072086F81E3286F82022FF23FE2286F8E7
:102480002202681C86F81C3286F81D2286F821126A
:102490000DDB05F22220304406F22123002201E068
:1024A00013F8011F98420A44FAD1D343DBB27219E0
:1024B00005F10801B1F5007F82F8233200F354855D
:1024C000002906F5077216DDEB1D02EB030A3D4DF0
:1024D00006F21B2903E004F069F8CA450BD07268C4
:1024E00019F8011F13681B68AB420846F3D0104669
:1024F0009847CA45F3D12760DFF8DCA0DAF800304E
:10250000FB1AB3F57A7F80F0BF81D8F800302E4CEB
:102510000593059ED4F8003542F6F822F31A93424B
:1025200084BF002384F8F834D4F8E434264A33B165
:10253000D2F804359E4284BF0023C2F8E434234F0E
:10254000214DA26932B1D8F800300993099B9B1B39
:102550009A4224D3606803685B69BB4240F08B8079
:1025600003F03AFF0028C0F28A80D4F8F434D4F89B
:10257000E424DFF854E00344072AC4F8F43467D0B5
:1025800062BBFF2800F0DB80D8F800300893089B7E
:1025900041F288319B1B8B42D3D98EF8F82401205D
:1025A00002F06AFF11B0BDE8F08F00BF2498FF1F52
:1025B0003497FF1F00007A44B897FF1F9F7478413B
:1025C0009896FF1FC90B0000A090FF1FD10B0000C1
:1025D0006498FF1F811C00002496FF1F012A00F051
:1025E000B680022A00F00B81032A00F01381042A2E
:1025F00000F01A81052A00F02781062A00F02C81BC
:10260000082A9ED19C4A1A4000239A42C4F8E43416
:10261000C0F2D982FF2A94D1D4F8EC34DFF85C926E
:10262000002B00F026850A2B00F0EA82062B00F032
:102630001F830B2B00F0E082BC3355F823000028E9
:102640003FF47FAF036809F11C011B68984778E7E6
:10265000D5F8F024D5F8E834A918013B0132087701
:10266000C5F8F024C5F8E834002B7FF46AAF0823DE
:10267000C4F8E43465E798470028BFF676AF94F8CD
:10268000F8347E48002B8AD0D0F8FC3440F6C412CF
:10269000F31A934283D9FF23FE21002280F81C32D3
:1026A00080F81D12F72308250A2180F8203280F8CF
:1026B000232280F8242280F8252280F8262280F820
:1026C000272280F8282280F8292280F82A2280F800
:1026D0001F2280F8222280F81E5280F8211200F278
:1026E000212300F22A2001E013F8011F83420A444B
:1026F000FAD1634F634DD24384F82B2207F10F09BF
:10270000FF2105E003F052FF4F450BD017F8011FE2
:10271000626813681B68AB420846F3D010469847BE
:102720004F45F3D1D8F800300D930D9BC4F8FC64ED
:102730000120E36002F0A0FE11B0BDE8F08F01229D
:1027400006F11403C5F8E424C5F80435F9E6FE28BB
:1027500076D095F8F8240023C5F8E434002A7FF4F5
:10276000F0AEFF23FE21082085F81C3285F81D12EB
:10277000F7230A2185F8203285F823220EF221233F
:1027800085F8242285F8252285F8262285F8272237
:1027900085F8282285F8292285F82A2285F81F2223
:1027A00085F8222285F81E0285F821120EF22A2EC3
:1027B00001E013F8011F73450A44FAD1DFF8C0A005
:1027C000DFF8C090D24384F82B220AF10F0BFF21CF
:1027D00005E003F0EBFEDA450BD01AF8011F626842
:1027E00013681B684B450846F3D010469847DA45F6
:1027F000F3D1D8F800300793079BE360A1E60022ED
:102800000323C5F8E804C5F8F404C5F8F024C5F8B6
:10281000E43496E6D5F8E83403EB00200423C5F849
:10282000E804C5F8E4348CE6134A1A40002AC0F2E2
:10283000C081FF2A0CBF05230023C4F8E43480E6DE
:102840000223C5F8E4347CE60623C5F8EC04C5F899
:10285000F404C5F8E43474E6D5F8EC34D5F8E8248B
:1028600003EB00230721C5F8EC34C5F8E414002A73
:102870003FF4FDAE65E600BFFF000080A090FF1FA3
:10288000BC92FF1FC90B00000D2002F097FC05F061
:1028900013FCD149D14D05F063FC4FF06A5105F0AE
:1028A0005FFCCF4905F010FDA861044604F0E4FF89
:1028B0000022CC4B04F080FEC5A3D3E9002305F031
:1028C00059F90022002304F079FE05F0EBFA4FF0ED
:1028D0007E51E86205F0D8FD002840F057810223C0
:1028E00085F830302046C04905F0D8FD002800F0BA
:1028F0005781032385F83130BC4AAB68D668DFF8CE
:10290000F492316892680C68009201334C45AB60D8
:1029100040F05481632A04DD96F8F824002A00F080
:102920003281EA682969D5F814B086F82722140A9A
:10293000100C120E4FEA112E86F8233286F8284228
:1029400086F829020C0C080E86F82A2286F82B122B
:102950001A0C190A1B0E86F82CE286F82D4286F80E
:102960002E0286F8241286F8252286F8263258464A
:1029700006F046FB0446230E220C000A86F82F427E
:10298000594686F8300286F8312286F832322246DD
:1029900006F2332002F066FA06F223231A19A96917
:1029A00011744FEA112E080C090E82F811E0907490
:1029B000D174E96911754FEA112E080C090E82F8DD
:1029C00015E09075D175296A11764FEA112E080C21
:1029D000090E82F819E09076D176696A11774FEA8C
:1029E000112E080C090E82F81DE09077D177A96AA4
:1029F00082F820104FEA112E080C090E82F821E00F
:102A000082F8220082F82310E96A82F824104FEA43
:102A1000112E080C090E82F825E082F8260082F8B3
:102A2000271095F8301082F8281095F8311082F8A8
:102A3000291095F8321082F82A1095F8331082F890
:102A40002B10696B82F82C10696B090A82F82D1023
:102A5000E98E82F82E1095F8371082F82F10696BE6
:102A60003034C1B10020E96B51F8201082F83010E9
:102A70004FEA112C4FEA114E090E82F831C082F84C
:102A800032E082F83310696B0130814204F10404B2
:102A900002F10402E7D8286C019306F0B1FA019B19
:102AA00002460021181922FA01FE0831202900F8F7
:102AB00001EBF8D104341819296C0193144402F085
:102AC000D1F9686C06F09CFA019B83461919002223
:102AD0002BFA02F00832202A01F8010BF8D1043455
:102AE0001819696C5C445A4602F0BCF9E1B2C4F3AF
:102AF00007200A18009D86F81E12D243FF234FF0CC
:102B0000FE0CE9B245F3072E86F82022621C86F8F7
:102B10001F0286F81C3286F81DC286F8211286F83C
:102B200022E20DDB04F22220304406F221230022AF
:102B300001E013F8011F83420A44FAD1D343DBB208
:102B4000321904F10801B1F5007F82F8233200F355
:102B50009181002906F5077915DD0734A144244D3C
:102B600006F21B2403E003F021FDA1450BD072689F
:102B700014F8011F13681B68AB420846F3D01046D7
:102B80009847A145F3D1CAF80070BEE4042385F844
:102B900030302046144905F081FC00287FF4A9AEAE
:102BA00085F83100A8E62A46009930469847276004
:102BB000A2E4013A62F0FF0201323AE60099074AC4
:102BC0003046A047DFE7013A62F0FF02013221E51B
:102BD0000000000033331340333353405096FF1F3F
:102BE000CDCC4C3E00002840CDCC4C41F497FF1F8B
:102BF000C90B0000811C0000002385F8F834A0E414
:102C0000D8F800300A930A9BEA68D8F800100C91B3
:102C1000CC49286ADFF844C3DDF830A09B1AA1FB39
:102C2000031E4FEA9E1E4FF47A718444C648EA6937
:102C300001FB1E3300FB03CCC24BA3FB0A3B4FEA54
:102C40009B1B013A01FB1BA1724400FB11C3CBEBA0
:102C5000020209F1140109F110006B612A6102F00E
:102C6000EDF8D8F800300B930B9BC5F8003568E4FD
:102C7000D5F81C90D5F81035994507D94FEA890148
:102C8000D5F8180505F0A6FFC5F81805C4F8109585
:102C9000B9F1000F00F0DB81AC4A042102F2145CB0
:102CA0004FF0000E92F8223092F8219092F8200016
:102CB0001B0443EA092392F82390034343EA096380
:102CC000C4F81435D4F81835DCF8000043F82E00A9
:102CD000D4F810350EF1010E7345084602F10402D6
:102CE00001F10401DED8019100F10B0100F1080BA4
:102CF000009100F10C01D94600F1050E00F1060C1F
:102D000000F1070A00F1090300F10A020291A4444C
:102D100001999CF81CC0A64421449EF81C00097F20
:102D2000A2444FEA0C4C9AF81CE04CEA002C4CEA06
:102D3000010141EA0E6AD4F81C158A450BD94FEA05
:102D40008A01D5F824050392019305F043FF039A05
:102D5000019BC5F82405C4F81CA5BAF1000F00F0CA
:102D60007081DFF8FCE105EB09020021937F92F806
:102D70001DC0107F1B0443EA0C2392F81FC00343BD
:102D800043EA0C63C4F82035D4F82435DEF800009B
:102D900043F82100D4F81C3501318B42484602F13A
:102DA000040209F10409E1D8C11DCB46431D821D6F
:102DB000009100F1080923442244187F009B117FF1
:102DC000D4F828252344A3449E4609049BF81C30CC
:102DD0009EF81CA041EA00210B4343EA0A6A92458F
:102DE00007D94FEA8A01D5F8300505F0F3FEC5F89A
:102DF0003005C4F828A5BAF1000F36D0DFF864E139
:102E000000220EF5A26A944609F11C0B0023A3448C
:102E100019461BF8010B98400833202B41EA0001AA
:102E2000F7D109F10400014481420BD909F11F03D4
:102E30002344814609F1010993F801B003F801BB6D
:102E40004945F7D86318013883F81BC07044D4F89B
:102E50003035C4F82C05DAF8000043F82200D4F825
:102E60002835013293428946CED8012384F80835AB
:102E7000FFF767BB03228DF83820336834483549A3
:102E80000D900F911B684B4540F04881002338217D
:102E900086F8232286F8241286F8253286F8263210
:102EA00086F827320F9B06F50A7203F130011D6880
:102EB0005C689868D3F80CE0C2F80CE010338B42E1
:102EC00015605460906002F11002F0D11D685B68DB
:102ED0005360FF2115603D200023C222FE2486F8A6
:102EE0001C12072186F81E0286F8202286F81D4251
:102EF00086F81F3286F8223286F8211206F2212245
:102F000006F25F2001E012F8011F90420B44FAD153
:102F1000DB43114D86F8603206F21B2406F5187962
:102F200004E003F043FB4C453FF42DAE726814F807
:102F3000011F13681B68AB420846F2D01046984741
:102F4000F1E700BFD34D621040420F00A090FF1F79
:102F500034950000E09B0000C90B000000CA9A3BBA
:102F6000C095FF1FBC90FF1F03228DF838203368E7
:102F7000C648C7490D900F911B684B455BD1002394
:102F8000382186F8232286F8241286F8253286F81E
:102F9000263286F827320F9B06F50A7203F13001BC
:102FA000D3F800E05D689868D3F80CC0C2F80CC094
:102FB00010338B42C2F800E05560906002F11002BD
:102FC000EED1D3F800E05B685360FF21C2F800E067
:102FD0003D200023C222FE2586F81C12072186F818
:102FE0001E0286F8202286F81D5286F81F3286F8C7
:102FF000223286F8211206F2212206F25F2001E039
:1030000012F8011F90420B44FAD1DB43A14D86F820
:10301000603206F21B2A06F5187972681AF8011F49
:1030200013681B68AB4208460ED103F0BFFACA45CD
:10303000F3D1FFF760BA30460DAA07219847FFF792
:103040005ABADDF80890B6E610469847EFE70C2329
:103050004FF0080B029304210B230093D9460A2258
:1030600009234FF0070A4FF0060C4FF0050E0191AF
:103070004DE69A4609F22321874B0D930DA89346FE
:10308000CDF838A0CDF83CA0FDF7F0F90146C1F32A
:103090000722C0B28318DB4389F81E02FE2589F897
:1030A00020320A204B1C89F81CB289F822A289F828
:1030B0001F2289F81D5289F82102C0F21A8201F2FA
:1030C000222553464D4409F2212201E012F8010F56
:1030D000AA420344FAD1DB43DBB2621801F10805CE
:1030E000B5F5007F82F823326C481CDC002D1CDD16
:1030F00001F22321674D471800F21B2903E003F07A
:1031000055FA4F4511D0626819F8011F13681B6802
:10311000AB420846F3D010469847F2E730460DAA76
:10312000072198472FE5FEF733FDD8F800300693C6
:103130005B4D069BE36005F1640755F8043F002BE7
:1031400000F0EF8058689A6801680092D3F800B0E8
:103150008B6898472B68824658680368DB689847F5
:103160002B68009AD3F81080B8F1630F814604DD14
:1031700094F8F834002B00F0D480C2F3072384F8CD
:10318000232284F82432584605F03AFF03464FEADA
:10319000136E020A000C594684F8253284F8262260
:1031A00084F827021A4684F828E23E48009301F08A
:1031B00059FE504605F024FF009B024603F22920E9
:1031C00020440633002122FA01FE0831202900F8AC
:1031D00001EBF8D1344804335146184402EB030A9A
:1031E00001F040FE484605F00BFF0AF22322834619
:1031F000224400232BFA03F10833202B02F8011B91
:10320000F8D1294B0AF1040A494603EB0A005A4651
:1032100001F028FE0BEB0A0E0EF1040C04EB0E017C
:103220005FFA8CF9CCF307200022022309EB000B94
:1032300081F8243281F8232281F8252281F8262280
:103240006FEA0B0B5FFA88F1FF234FF0FE0A48F399
:103250000728BCF1FF3F84F820B284F81E9284F85E
:103260001F0284F81C3284F81DA284F8211284F80D
:10327000228224DBDFF834806FF4087908EB09033D
:103280000EF226201844434614E000BF3495000097
:10329000E09B0000C90B000004950000A090FF1FF8
:1032A000B894FF1FC992FF1FC392FF1FC192FF1F57
:1032B00013F8011F83420A44FAD1D343DBB204EB73
:1032C0000C020CF1080CBCF5007F82F823321CDCE8
:1032D000BCF1000F25DDDFF83882DFF838A20EF2EE
:1032E000272EA8F21B2303EB0E0903E003F05EF97F
:1032F000C14516D0626818F8011F13681B68534552
:103300000846F3D010469847F2E703217A4A7B4BF0
:103310000D928DF838107A480F930DAA0721FEF709
:10332000AFFCBD427FF409AF57F8040F002800F04E
:10333000D38090E828009B68D0F80890984783468F
:1033400038680368DB6898478246386803685B68BA
:1033500098476328804604DD94F8F834002B00F089
:10336000BB80C5F30723484684F8235284F82432EF
:1033700005F046FE05462B0E020A000C494684F86D
:10338000283284F8262284F827022A4684F8255217
:103390005C4801F067FD584605F032FE05F2292130
:1033A0000246214405F10609002322FA03F00833FE
:1033B000202B01F8010BF8D1534B09F1040903EB61
:1033C00009005946914401F04DFD504605F018FEA4
:1033D00009F2232205462244002325FA03F108338B
:1033E000202B02F8011BF8D1474B09F10409514683
:1033F00003EB09002A464D4401F034FD05F1040EAB
:1034000061195FFA8EF9CEF3072C0022022309EB33
:103410000C0081F8243281F8232281F8252281F8DA
:103420002622C0435FFA88F1FF234FF0FE0A48F3DB
:103430000728BEF1FF3F84F8200284F81E9284F82A
:103440001FC284F81C3284F81DA284F8211284F86B
:10345000228210DBDFF8C0C06FF40873634405F20A
:1034600026201844634601E013F8011F98420A44DD
:10347000FAD1D343DBB204EB0E020EF1080EBEF517
:10348000007F82F823321BDCBEF1000F24DDDFF861
:103490008080DFF8809005F22725A8F21B231D44C9
:1034A00003E003F083F8A84516D0626818F8011FFE
:1034B00013681B684B450846F3D010469847F2E75F
:1034C00003210D4A0D4B0D928DF838100C480F93C7
:1034D0000DAA0721FEF7D4FB0C4B9F427FF424AFCB
:1034E0000123C4F8FC64C4F8006584F8F834FFF7DD
:1034F00056B85B46F1E500BF34950000E09B000044
:10350000A090FF1FC992FF1FC392FF1F8095FF1F4E
:10351000BB92FF1FC90B0000C192FF1F2DE9F04FA6
:103520008DB0D04AD04B06920022044600F5836647
:1035300000F27C45ADF81C200B92089309930A9386
:1035400056F8043F002B00F0D28058681F680168CD
:103550009A6808978B68ADF81C20984733680990E3
:1035600058680368DB689847236831680A904FF40D
:1035700000721B68D1F810800B92BC4A93428246BD
:1035800040F0B581B8F1630F04DD94F8F834002BF6
:1035900000F0AD80BDF81C30DDF8209084F82332B7
:1035A0001B0A84F82432484605F02AFD07463B0EE4
:1035B0003A0C000A494684F8283284F8257284F8C7
:1035C000260284F8272204F229203A4601F04AFC18
:1035D000DDF824B0584605F013FD04F22329791DC7
:1035E000024606374944002322FA03F00833202B11
:1035F00001F8010FF8D10437594609EB07001744C9
:1036000001F030FC504605F0FBFC09EB0702834655
:1036100000232BFA03F10833202B02F8011BF8D109
:103620000437514609EB07005A4601F01BFC0BEB2F
:10363000070E0EF104075FFA87FAC7F3072C09EBB0
:103640000E010AEB0C000022C0434FF0020B09F8F8
:103650000E20FF238A70CA7081F801B04FF0FE0976
:103660005FFA88F184F8200248F30728781C84F870
:103670001EA284F81FC284F81C3284F81D9284F8BC
:10368000211284F82282C0F20A820EF226202044FF
:1036900004F2212301E013F8011F98420A44FAD1F1
:1036A000D243D2B2E11907F10803B3F5007F81F8E4
:1036B000232200F32481002B04F5077717DD0EF198
:1036C0000B0EDFF8AC91774404F21B2803E002F004
:1036D0006DFF47450BD0626818F8011F13681B681F
:1036E0004B450846F3D0104698474745F3D1B542BD
:1036F0007FF426AFDFF8749104F59C6855F8040F49
:10370000002800F0E3808168036842680891ADF802
:103710001C209B6898472B6809901A681846D36844
:1037200098472B6821680A901A680E6852684FF40F
:10373000007118460B9190474E45074640F0CF80E8
:10374000632804DD94F8F834002B00F0BF80BDF846
:103750001C30089E84F823321B0A84F82432304639
:1037600005F04EFC82464FEA1A634FEA1A42000AFD
:10377000314684F8283284F825A284F8260284F899
:10378000272204F22920524601F06CFB099901918D
:10379000084605F035FC04F223260AF105020199DA
:1037A00083460AF1060A324400232BFA03F0083359
:1037B000202B02F8010FF8D10AF1040A5A4606EB51
:1037C0000A0001F04FFB0A990191084605F018FC28
:1037D000D3440199824606EB0B0200232AFA03F038
:1037E0000833202B02F8010BF8D10BF1040B06EB88
:1037F0000B00524601F036FB0AEB0B020B9BB35455
:10380000111D16445FFA81FCC1F3072E4FEA132BFA
:103810004FEA134A0CEB0E001B0E86F801B086F837
:1038200002A0F370C043FEB24FF0FF0B4FF0FE0A50
:1038300047F307274B1C84F8200284F81EC284F843
:103840001FE284F81CB284F81DA284F8216284F877
:10385000227218DB02F22627274404F221230020DB
:103860000AE000BF1C950000189C0000811C0000AD
:10387000C90B000013F8016FBB423044FAD16FEA64
:10388000000B5FFA8BFB63180831B1F5007F83F8FA
:1038900023B200F3A080002904F5077716DD0B3270
:1038A000DFF820A2174404F21B2603E002F07EFE9C
:1038B000BE420BD0626816F8011F13681B6853459F
:1038C0000846F3D010469847BE42F3D1A8457FF48E
:1038D00015AF012384F8F8340DB0BDE8F08F014630
:1038E00006AA2046B047A8457FF408AFF1E7414655
:1038F00006AA20469847B5427FF422AEFAE66E4902
:10390000039103226D49236805918DF810201B68EF
:103910006B498B4240F0CA80684F84F82322002311
:10392000382207F1300884F8242284F8253284F8FC
:10393000263284F8273204F50A7EBC46BCE80F0024
:10394000C445CEF80000CEF80410CEF80820CEF81A
:103950000C3067460EF1100EEFD103CF0022CEF8E7
:103960000000CEF804103D20C2234FF0FF0CFE27CC
:10397000072184F81E0284F8203284F81CC284F8DF
:103980001D7284F81F2284F8222284F8211204F286
:10399000212304F25F2001E013F8011F98420A443A
:1039A000FAD1D243DFF81C9184F8602204F21B277D
:1039B00004F5187804E002F0F9FD47453FF497AEAE
:1039C000626817F8011F13681B684B450846F2D060
:1039D00010469847F1E73849039103222368374995
:1039E00005918DF810201B684B455AD1002384F8AF
:1039F000232238220E4601F1300C84F8242284F868
:103A0000253284F8263284F8273204F50A77B64640
:103A1000BEE80F00E64538607960BA60FB60764624
:103A200007F11007F3D103CE0022386079603D2002
:103A3000C2234FF0FF0EFE26072184F81E0284F8F1
:103A4000203284F81CE284F81D6284F81F2284F876
:103A5000222284F8211204F2212304F25F2001E0E3
:103A600013F8011F98420A44FAD1D243DFF854A058
:103A700084F8602204F21B2604F5187704E002F0B3
:103A800095FDBE423FF422AF626816F8011F13682D
:103A90001B6853450846F2D010469847F1E71A468E
:103AA00000E603AA0721204698470FE703AA07214B
:103AB000204698471BE600BF34950000E09B0000BD
:103AC000811C0000C90B00002DE9F04FC74E93B0D8
:103AD00033680693069DD0F8003542F6F822EB1ABB
:103AE000934284BF002380F8F834D0F8E4340446CD
:103AF00033B1D0F80435AB423CBF0023C0F8E43406
:103B0000BB4FDFF8FCB2A26932B133680793079B61
:103B10005B1B9A42C0F02481606803685B69BB420A
:103B200066D102F059FC002865DBD4F8F434D4F8EF
:103B3000E4240344072AC4F8F43447D082B9FF28A8
:103B400069D033680893089B41F288315B1B8B4234
:103B5000D9D984F8F8246FF0010013B0BDE8F08FD4
:103B6000012A60D0022A00F0BF80032A00F0C7803B
:103B7000042A00F0CE80052A00F0DB80062A00F03F
:103B8000E080082ABFD19B4A1A4000239A42C4F819
:103B9000E434C0F26081FF2AB5D1D4F8EC34002BB4
:103BA00000F092820A2B00F05C82062B00F05C8110
:103BB0000B2B00F05581BC3354F823000028A2D011
:103BC000036804F11C011B6898479CE7D4F8F034A3
:103BD000E2180133C4F8F0341077D4F8E834013B2C
:103BE000C4F8E834002B8ED10823C4F8E4348AE703
:103BF0009847002899DA94F8F8040028ADD0D4F852
:103C0000FC3440F6C412EB1A934200F2AE8000205E
:103C100013B0BDE8F08F012205F11403C4F8E424C9
:103C2000C4F804356FE7FE287FD094F8F824002309
:103C3000C4F8E434002A7FF466AF6F4923680F911B
:103C40001B686E4910928B42119240F0FF80FF2159
:103C50000820F7234FF0FE0E84F81C120A2184F886
:103C60001E0284F8203284F8232284F8242284F867
:103C7000252284F8262284F8272284F8282284F832
:103C8000292284F82A2284F81F2284F8222284F828
:103C90001DE284F8211204F2212304F22A2001E01B
:103CA00013F8011F98420A44FAD1D243DFF8549125
:103CB00084F82B2204F21B2804F22B2A03E002F0E2
:103CC00075FCC2450BD0626818F8011F13681B68A9
:103CD0004B450846F3D010469847C245F3D13368A8
:103CE0000993099BE3600EE700220323C4F8E8046C
:103CF000C4F8F404C4F8F024C4F8E43403E7D4F8B6
:103D0000E83403EB00200423C4F8E804C4F8E434E6
:103D1000F9E6384A1A40002AC0F28580FF2A0CBF13
:103D200005230023C4F8E434EDE60223C4F8E434A8
:103D3000E9E60623C4F8EC04C4F8F404C4F8E43457
:103D4000E1E6D4F8EC34D4F8E82403EB00230721AF
:103D5000C4F8EC34C4F8E414002A3FF445AFD2E6CA
:103D60006FF0010013B0BDE8F08F234A23680F9273
:103D70001B68224900228B421092119258D1FF21D8
:103D80000820F723FE2784F81C120A2184F81E025B
:103D900084F8203284F8232284F8242284F825220F
:103DA00084F8262284F8272284F8282284F82922FD
:103DB00084F82A2284F81F2284F8222284F81D72B3
:103DC00084F8211204F2212304F22A2001E013F8DE
:103DD000011F98420A44FAD1D243DFF8288084F8C0
:103DE0002B2204F21B2704F22B2911E06498FF1FF9
:103DF000D10B0000FF00008004950000811C000032
:103E000040420F00C90B000002F0D0FBB94513D0AF
:103E1000626817F8011F13681B6843450846F3D012
:103E200010469847F2E7013A62F0FF02013275E767
:103E30000FAA0A212046984733680B930B9BC4F8BE
:103E4000FC540020E36013B0BDE8F08F0FAA0A21F4
:103E50002046984743E7013A62F0FF0201329AE6B2
:103E6000002384F8F8344EE6D4F81C90D4F81035CA
:103E7000994504F11C0807D94FEA8901D4F81805BF
:103E800004F0A8FEC4F81805C4F81095B9F1000FA5
:103E900000F0358104F2145C424604214FF0000E1C
:103EA000937992F8059010791B0443EA092392F85C
:103EB0000790034343EA0963C4F81435D4F818356E
:103EC000DCF8000043F82E00D4F810350EF1010E96
:103ED0007345084602F1040201F10401E0D80391A0
:103EE00000F10B0100F1090200F10803029100F159
:103EF0000C010192994600F1050E00F1060C00F14B
:103F0000070A00F10A02049118F80C00039918F846
:103F10000EE018F801C018F80AA0D4F81C15000427
:103F200040EA0E2040EA0C0C4CEA0A6A8A450BD99A
:103F30004FEA8A01D4F824050592039304F04AFE5F
:103F4000059A039BC4F82405C4F81CA5BAF1000F18
:103F500000F0D28004F5A46E08EB090200219378EA
:103F600092F801C010781B0443EA0C2392F803C0B6
:103F7000034343EA0C63C4F82035D4F82435DEF853
:103F8000000043F82100D4F81C3501318B4248462B
:103F900002F1040209F10409E1D8421DC11D4B469A
:103FA00001920291821D00F1080918F80200019A9D
:103FB00018F8033018F80210029A000418F802A04A
:103FC000D4F8282540EA01210B4343EA0A6A9245C6
:103FD00007D94FEA8A01D4F8300504F0FBFDC4F894
:103FE0003005C4F828A5BAF1000F36D000218E465E
:103FF00004F22C5000231A4608EB090A1AF801CBE8
:104000000CFA03FC0833202B42EA0C02F6D109F12A
:10401000040C624494450BD209F103034344E14686
:1040200009F1010913F801AF03F801AC9145F7D389
:1040300008EB02030CF1FF3C03F801ECC444D4F894
:104040003035C4F82CC5D0F800C043F821C0D4F8EE
:10405000283501318B429146CCD8012384F80835AC
:1040600051E533680C930C9BE2682E48D4F820C0CD
:1040700031680E919A1AA0FB02E02B4BDDF83880D4
:10408000E1694FF47A7E80090EFB102263440BFB3A
:104090000232244BA3FB083C4FEA9C1C0139084424
:1040A0000EFB1C8321460BFB1323CCEB0002226189
:1040B00004F1100041F8143F00F0C0FE33680D9386
:1040C0000D9BC4F800351EE5226818490F91109326
:1040D00011930A21136820460FAA984733680A9360
:1040E0000A9BE3602046FFF719FAC4F8FC54C4F8B1
:1040F00000554FF0FF3030E5DDF8109055E70C2209
:1041000009210823049201910B220421029299466D
:104110000A224FF0070A4FF0060C4FF0050E0391EC
:10412000F2E600BFD34D621000CA9A3B049500002E
:10413000F8B5774B7748784D784E00241C6700F02F
:104140000DFC774800F00AFC09220521754800F0B3
:10415000DDFB754A7549734804F0E8F9744B7548FE
:10416000C5F80C354FF46142AA6085F8F844C5F8EB
:104170001045C5F81845C5F81C45C5F82445C5F8CF
:104180002845C5F8304521462E60686005F58362F4
:1041900005F27C4342F8041F9342FBD1664900229A
:1041A00043F8042F8B42FBD1644A002102F50073CF
:1041B00002F8011F9A42FBD16148002103F8011F58
:1041C00083424FF00002F9D15E495F4B5F4E604C75
:1041D0005E604E605F4EAA610E605F4D5F4E604F45
:1041E000DFF8E8E19A60DA601A619A611A625A624D
:1041F000DA621D605E6163605A4B236000238A604F
:10420000CA600A6181F8302081F8312081F83220BB
:1042100081F833204A63CA634E6122618B61CB61AE
:104220000B624B628B62CB620E64CEF810203A7444
:104230004D4A3A604D4AFA604D4A4E484E4D7A61B9
:104240004E4A4E64BA60DFF888C14D4E4D4A4E4C1E
:10425000CEF80410CEF800C00662DFF878C1DFF8AF
:1042600078E12A620126494AAA604949C5F800C096
:10427000C5F80CE02B616B61AB61EB616E62454D83
:104280008160036143618361C361C0F800C0C0F80D
:104290000CE04662BE614048C4F800C0C4F80CE0BF
:1042A00023616361A36125623C4DA560E3616662A1
:1042B0003B4C3C4904623C4C3C4A8460C0F800C022
:1042C000C0F80CE0036143618361C3614662384C0E
:1042D000384808628C60C1F800C0C1F80CE00B617E
:1042E0004B618B61CB614E623348344F344D354C5A
:1042F000354953619361D36153629362D36217600E
:10430000D56010611062146356639160F8BD00BF00
:104310003497FF1FE897FF1FA090FF1F0C96000027
:10432000EE97FF1FA897FF1F2087FF1FAD460000D5
:104330004C9500009087FF1F8095FF1FBB90FF1FCB
:10434000BB94FF1F5096FF1FB897FF1F9495000066
:104350009896FF1FC4950000AC950000189C0000C3
:104360000898FF1F1C9C0000209600006495000028
:1043700009080000FC95FF1FAC96FF1F409C000041
:1043800011080000510800002896FF1F6C9C0000D7
:10439000549C000091080000D495FF1F889C0000E9
:1043A000D1080000D496FF1FA09C0000FC96FF1FC0
:1043B000B89C000011090000DC9500005096000038
:1043C000F4950000611F0000D09C0000F497FF1FCF
:1043D0002C9C0000389600007C95000030B50B68DE
:1043E000044683B00D4608461B6A00224FF4E131B3
:1043F000984704220A4BE2701B680A4A019311682D
:10440000019865600023A0602167146084F82C3057
:1044100084F82D30A4F84A3084F84C3003B030BD15
:104420006498FF1F2898FF1F2DE9F0410446006F94
:1044300082B008B1FFF7F8FF784D00266068036886
:104440001B699847002840F385802B680193019AE7
:10445000A3686068A260D31A022B88BFE670036865
:104460005B699847E378C2B2032BE7D8DFE803F033
:1044700014220F02000294F84C30B4F84A2000F4E1
:104480007F401844824229D00423E370D6E70323F7
:1044900084F84C20E370D1E7131F1C2BF4D8D11EF5
:1044A0000123D24384F82C6084F82D10A4F84A200C
:1044B000E370C3E794F82C104B1C2144DBB284F862
:1044C0002C300A73B4F84A1094F82D008A1A9842D6
:1044D000A4F84A20B2D10223E370AFE7237B402B3C
:1044E0003BD094F86C2003F00F07BA42CCD3002FD6
:1044F000CAD094F82D20012AC6D14FF44862013A5F
:10450000FDD103F0F003902B65D0A02B39D0802B88
:10451000BAD1237860680133237003680421DB6C0F
:1045200098476068036807F18001DB6C9847C7F51E
:104530007F417B3189B2A4F84A1060680368C9B230
:10454000DB6C98476068B4F84A100368090ADB6CB2
:10455000984799E702B0BDE8F08122460123977B96
:10456000507B03F0FE0102332144DBB240EA072016
:104570001D2BC88502F10202F1D1A3780133A3708B
:1045800082E7637860680133637003680621DB6C3F
:1045900098476068036807F1A001DB6C9847606882
:1045A00004EB4708036898F85810DB6C984760687C
:1045B000B8F858100368090ADB6C9847B8F8581027
:1045C00007F1A60353FA81F303EB1121C94389B222
:1045D000A4F84A10B1E7606803680621DB6C9847CD
:1045E0006068036807F19001DB6C9847606804EB32
:1045F0000708036898F84D101B68984760680368BF
:104600000221DB6C9847C7F57F4798F84D10673754
:104610007F1AB9B2A4F84A108FE700BF6498FF1F51
:104620000D299ABF00EB4100C08D0020704700BFEC
:1046300010B5094C204600F049FB20464FF0605170
:1046400000F0D2FB2046012100F0A2FB2046002111
:10465000BDE8104000F0C2BB3C87FF1F10B5044608
:104660000121807800F002FFE078012100F0FEFED9
:10467000A078002100F0F4FEE0780021BDE81040B1
:1046800000F0EEBE8378FF2B01D0FFF7E7BFFFF706
:10469000CFBF00BF10B504460021807800F0E6FED1
:1046A000E0780021BDE8104000F0E0BE10B50446FF
:1046B000806803F07DFFA378FF2B04D02046FFF72E
:1046C000E9FF204610BD024800F03EFB204610BD29
:1046D0003C87FF1F70B506460D46082415F0800F75
:1046E0004FF00001B07818BF012100F0B9FE0121A0
:1046F000F07800F0B5FE00BF00BF0021F07800F0B8
:10470000AFFE00BF00BF631E6D0013F0FF04EDB2EB
:10471000E4D170BD2DE9F84F8468002C3FD0837838
:10472000B0F800B00779FF2B51D005464FF00408D0
:1047300000212846FFF7CEFF08F1FF3313F0FF08F2
:10474000F6D12B796BB30BF1FF381FFA88F808F11B
:10475000010808EB4808A044FF212846FFF7BAFFEC
:10476000E61C14F8011B17FB01F1090A2846FFF7A4
:10477000B1FFB442F5D1A045EED12B880F331B0910
:104780000DD00024FF212846FFF7A4FF2B88013419
:10479000E4B20F33B4EB231FF4DBBDE8F88FBDE8C0
:1047A000F88F0BF1FF37BFB2013707EB47072744FC
:1047B000FF212846FFF78EFFE61C14F8011B284650
:1047C000FFF788FFA642F8D1BC42F1D1D5E7354BBF
:1047D000D3F800C003254FF000410022CCF82C1084
:1047E000CCF83420DCF82C30002BFBDA6B1EDCF824
:1047F000385013F0FF05F1D12B4B1A684FF0004EE3
:1048000042F480621A601946C3F82CE004347646FC
:104810001A465D63D9464FF0FF0ACB6A002BFCDADB
:10482000136843F480631360E51ED662C2F834A0B7
:10483000037915F801EC1BB11EFB07FE4FEA1E2E93
:10484000CB6A002BFCDA1368013543F48063A54280
:104850001360D662C2F834E0EAD109F1FF391FFAD9
:1048600089F9EC1CB9F1000FD7D10F4AD36A002B9C
:10487000FCDA0BF10F01091191D000224FF0004436
:10488000FF20CCF82C40CCF83400DCF82C30002B86
:10489000FBDA0132D2B28A42DCF83830F1DBBDE813
:1048A000F88F00BF3C87FF1F00C00240017B427BA6
:1048B00091420346806805D01A88002102EB42022B
:1048C00004F036B91B88DA1C03EBA202002104F0C5
:1048D0002FB900BF38B5044680680D4603F068FE66
:1048E000227B637B9A4206BFE81C05EBA00005EB28
:1048F000450080B203F054FEA06028B12580204618
:10490000BDE83840FFF7D2BF208038BDF8B500239E
:1049100002F00307C2F38105FF26C2F30112044629
:104920000773018086704573827303718360FFF79C
:10493000D1FF2046F8BD00BF70B404889DF80C502C
:104940008C4209D98668047B01EB410131440A5548
:10495000427B8B54837BCD5470BC704770B40F4E38
:104960000023358803710C21012215424FEA4204CD
:104970000AD00379013903F10103A2B20371F4D122
:10498000FF23037170BC704705490B88154323EA68
:10499000020235800A8070BC704700BF3498FF1F48
:1049A0003098FF1FF8B506790B2E01D93046F8BDB7
:1049B0000746CEB2304601211C46154600F056FD92
:1049C0001C483A791C4B01889E54012393400B43A9
:1049D0001A4903800B681A4805EB450504EB4404AB
:1049E000AD00A40044F2506613F480033D807C8047
:1049F00020F8126016D10A68124D1348DFF85CE007
:104A0000124E134C42F480020A604FF6FF722A6085
:104A10001049CEF8003042F6A275202233600560BE
:104A2000016022700C4B4FF480721A603E79304660
:104A3000F8BD00BF3098FF1F5098FF1F3C80044016
:104A40003898FF1F04600340006003400C6003407F
:104A500048E400E0A22F010008E100E00860034004
:104A60004FF416634FF40872FFF79CBF01EB41014E
:104A700003888900994203DB43888B42A8BF0B4619
:104A800002790B2A9CBF024921F81230704700BFFF
:104A90003898FF1FF8B5314E314D96F900202B881C
:104AA0001341DC0752D42F4C94F900300B2B0EDC51
:104AB000298841FA03F2D00702D52DE0D2072AD483
:104AC00001335BB20C2B41FA03F2F7D12370264875
:104AD0000268C2F56A3101F5C071B1F5966F17DB56
:104AE0004EF660238B42A8BF0B461A441F49026052
:104AF0000E681F4D1F4A1C4F334442F6A3760B60CD
:104B00002E600368934202D900233B602370F8BDF6
:104B10004FF49663E9E72370174A0121D05C00F057
:104B20009FFC94F90030104A1449104831F8135092
:104B3000116833702944116002680D492A44013319
:104B400042F6A37502600D602370F8BD0A4B002188
:104B5000985C00F085FC0C233370A4E73987FF1FB5
:104B60003098FF1F3298FF1F2C98FF1F0C600340E6
:104B7000006003407FA903005098FF1F3898FF1F73
:104B800010B4047F4160022CC26002D010BC01F05E
:104B90008DBD836810BC1847F0B4464B464A186B6D
:104BA000DC6A01791170454922790A709A6A0079A4
:104BB0000870002A46D05968C9688A423ED82168E0
:104BC000CC8B240402F1FF3065D4C0F30E00C883FF
:104BD000C88B80B2C882196B0968C88B000452D494
:104BE000C2F30E00C883C88B002480B212F1FF32DA
:104BF000C88218BF01229C62D96A2E4809680D68D4
:104C000000F12404A54236D00068C46814F0804F37
:104C10000C680D6815BF248824780235013544F0EE
:104C200000440D604463196B254B097919702149C3
:104C300012B1CA6A12791A70F0BC7047521A9A629D
:104C40000122D9E7586B196805681E4C0A63CC62CB
:104C5000CC682D681C4E24F080440327B542CC60FC
:104C600083F825701FD1037F4260022BC2601ED0E3
:104C7000F0BC01F01BBD016890F82400CC6840F046
:104C800000404863CFE7CC8BC2F3080004F47E44B5
:104C90002043C883A7E7CC8BC0F3080004F47E440C
:104CA0002043C88394E72B461146F0BC184783681D
:104CB000F0BC18473C87FF1F1F8000401C8000404D
:104CC0001B80004000000FFF814B000090E80C00AB
:104CD000F0B41C6859682568164F174E29432160A7
:104CE000164D17491760D66015611160417A154A53
:104CF0005C180A3194F8244053F8215002EBC401A7
:104D000049680D60017A5C1803EB8101247ECD694E
:104D100002EBC40149680D60817A581803EB8103E6
:104D200090F83000596B02EBC002F0BC5368196078
:104D3000704700BF01401F000110003801100078CB
:104D400000001F80C8A0000070B4417A44680E4B78
:104D500005680E4E2144002291F8241003EBC10196
:104D600049680A60017A2144097E03EBC101496860
:104D70000A60817A214491F8301003EBC1035B682B
:104D80001A602E6070BC7047C8A0000001401F0070
:104D90004268036805CA10B4046822430260DA68F6
:104DA00081B942F08072D9688A4209D019684804F2
:104DB0000BD40948186042F08040DA60186119602D
:104DC00010BC704722F08072EDE742F08041DA605B
:104DD00010BC1961704700BF01401F0043680CCB35
:104DE00011680B43136070474268036805CA10B42A
:104DF000046822430260D868840100F0E06205D5AF
:104E0000080900F4706021F470410143D86811432F
:104E1000814209D01A68500408D40748186041F04C
:104E20008040D96018611A6010BC704741F0804220
:104E3000D96010BC1A61704701401F0070B40D6842
:104E4000064B0468064E6A0AA3FB0232D3091C44CF
:104E500006FB135304600B6070BC7047834B040067
:104E600000CA9A3B844641EA000313F003036DD164
:104E7000403A41D351F8043B40F8043B51F8043B1D
:104E800040F8043B51F8043B40F8043B51F8043B24
:104E900040F8043B51F8043B40F8043B51F8043B14
:104EA00040F8043B51F8043B40F8043B51F8043B04
:104EB00040F8043B51F8043B40F8043B51F8043BF4
:104EC00040F8043B51F8043B40F8043B51F8043BE4
:104ED00040F8043B51F8043B40F8043B51F8043BD4
:104EE00040F8043B51F8043B40F8043B51F8043BC4
:104EF00040F8043B403ABDD2303211D351F8043B64
:104F000040F8043B51F8043B40F8043B51F8043BA3
:104F100040F8043B51F8043B40F8043B103AEDD212
:104F20000C3205D351F8043B40F8043B043AF9D263
:104F3000043208D0D2071CBF11F8013B00F8013B36
:104F400001D30B8803806046704700BF082A13D343
:104F50008B078DD010F003038AD0C3F10403D21A5B
:104F6000DB071CBF11F8013B00F8013B80D331F88F
:104F7000023B20F8023B7BE7043AD9D3013A11F80F
:104F8000013B00F8013BF9D20B7803704B7843707A
:104F90008B78837060467047374A384913681B0620
:104FA000FCD40B6813F08003F8D172B634490A7848
:104FB000002A5FD0334A3448F0B4344C176806688E
:104FC0002568D4680C303E44143200681268304FB3
:104FD00035442C4420440244C2F34E022D4E2E4848
:104FE0002E4D2F4C42F400423A60376806682D6817
:104FF0002C4A24680C303E44006812682A4F35441D
:105000002C4420440244C2F34E02284E2848294D25
:10501000294C42F400423A60376806682D68274AF6
:1050200024680C303E4400681268254F35442C44F7
:1050300020440244C2F34E02224E2348234D244C06
:1050400042F400423A60376806682D68214A2468B5
:105050000C303E440068126835442C44204402441D
:10506000C2F34E021C4842F4004202600B7062B66A
:10507000F0BC704762B6704724B0034024B00B40C8
:105080005D98FF1F38B003403CB0034040B0034080
:105090002CB0034058B003405CB0034060B0034004
:1050A00064B003406CB0034030B0034038B00B40F4
:1050B0003CB00B4040B00B4044B00B404CB00B40F8
:1050C0002CB00B4058B00B405CB00B4060B00B40B4
:1050D00064B00B406CB00B4030B00B4030B429488A
:1050E000294A2A4B2A4D6024E121047011701B7853
:1050F000284C082B30D00A2B2748284937D00C2BB6
:105100000CBF35223D2212232A60236002600B600F
:10511000234B24491B78244ABBB101230B60136045
:10512000224B23491B78234A012B26D9042B0FD964
:10513000082B1ED9102B94BF862387230B60136086
:105140001D4B01221A7030BC70470B601360E7E7FB
:1051500084230B601360F3E700F58E200F490830BD
:10516000012213232A60236002600B60D0E73922FA
:10517000F7E785230B601360E2E780230B60136081
:10518000DEE700BF00400740014007407487FF1F73
:1051900008B003400CB0034008B00B400CB00B400B
:1051A0006098FF1F20B0034020B00B407587FF1FA1
:1051B00024B0034024B00B405D98FF1F28282FD84F
:1051C000334B2DE9F0411E5CFF2E2BD0314B1B7869
:1051D000002B2AD132062CD472B62F4D2F4C2F46DD
:1051E000012326602B7062B672B623681B060CD4AE
:1051F0003B781BB9F4E72B78002BF1D062B601F0B5
:10520000CFFB72B623681806F5D5254B1B68002224
:105210002A7062B6234A107843FA00F0BDE8F081A4
:10522000002070470020BDE8F081FFF7B5FE320690
:10523000D2D572B61C4DDFF87C801C4C06F04007BE
:10524000FFB206F03F06D8F80030DFB123F01003BC
:10525000C8F8003001232660134A2B7062B672B67C
:10526000236819060CD413781BB9ECE72B78002BB4
:10527000E9D062B601F094FB72B623681B06F5D53F
:105280000B4BC3E743F01003C8F80030E2E700BF60
:105290009CA000005D98FF1F5F98FF1F00B00340B7
:1052A00010B003405C98FF1F5E98FF1F00B00B40DA
:1052B00010B00B400CB00B4008B5104C08E0236850
:1052C00059050DD423681A050FD42368DB0411D4C3
:1052D00023685803F3D500F067FA23685905F1D520
:1052E00001F0DAFE23681A05EFD501F06BFF2368A1
:1052F000DB04EDD501F0FCFFEAE700BF3480044099
:1053000008B5FFF7D9FF00BF014B10221A80704784
:1053100000200540704700BF094908B50B6830B14F
:105320006A461844A2F58052904202D2086018469C
:1053300008BD03F007F90C2303604FF0FF3008BDF0
:105340007887FF1FEFF3138070B9EFF310836BB909
:10535000EFF305825AB94FF48070EFF311832BB14C
:10536000984228BF184670474FF0FF3070470F2A09
:1053700001D81846F1E7014BD05CEEE7F0E300E01E
:1053800010B40F4B53F8302092F880422CB1012317
:1053900069B182F8803010BC704703EBC0035B68D2
:1053A0001A6841B922F002021A6010BC704782F8F4
:1053B000003110BC704742F003021A6010BC704705
:1053C000C8A000001C4A02EBC00301295B6811D091
:1053D00004291BD052F83000002280F8802229B125
:1053E000022920D0032922D01A6070474FF480721E
:1053F0001A60704752F830004FF4A27280F88012A1
:105400001A601A6822F020021A60704752F83010B1
:105410004FF4A272012081F880021A601A6842F0EB
:1054200020021A60704740F203121A6070474FF46E
:1054300081721A60704700BFC8A0000030B4054BED
:10544000054D064C002210211A602A602060196068
:1054500030BC704714D0034004D0034000D0034058
:10546000212801D8FFF78CBF704700BF212801D841
:10547000FFF7A8BF704700BF2DE9F843054672B695
:10548000204F214B214A1B683C68126862B65201CA
:1054900002D5322B88BF013495B3C3F5BB331C4E04
:1054A000DFF86490DFF86480FF334FF47A72A6FB74
:1054B000031302FB04F404EB931472B6D9F8001042
:1054C0003A68D8F800E062B6C1F5BB33FF33A6FBFB
:1054D00003031EF0806FC4EB93134FF47A7002D075
:1054E000322988BF013200FB0233B3F57A7F04D33F
:1054F000013D05D004F57A74DFE701F051FADCE7ED
:10550000BDE8F8836498FF1F18E000E004ED00E0B8
:10551000ABAAAAAAF8B52D4B2D49DFF8D0E0DFF8E9
:10552000D0C02C4E2C4D2D4C2D4A2E4F4FF4000048
:1055300018604FF0807018604FF0007018604FF0E6
:10554000806018604FF00060186000200860282319
:105550004BF6FF71CCF80010CEF8003033601360CA
:105560002B6023603B60B3629362092245F8242CD0
:10557000C4F8D80F05F57F65C7F8D41F07F5FF27D6
:1055800007F5FA67C6F8F83F2B6006F5FF26C4F862
:10559000D42F05F5FD2504F5FF24386006F2F476D6
:1055A0001148316005F5FF6504F5FD642B6023604B
:1055B0000260FFF793FD1920FFF75EFF00F05AFE2F
:1055C00040F21310BDE8F840FFF756BF08E100E0D5
:1055D0000480034014800340248003402C80034057
:1055E0001C8003403480034000800B400C8003404B
:1055F00008800340431E032B14D872B60A4951F8A1
:10560000230068B170B4094C058834F8132046684B
:1056100041F82360521B24F8132062B670BC704717
:1056200062B6704700207047C098FF1F489BFF1F5D
:10563000013803280BD872B6074B53F8203043B11A
:1056400000205B680130002BFBD162B67047002060
:1056500070471846F9E700BF1499FF1F30B472B6BF
:105660002B4A13781D0706D52A4B196A002936D014
:10567000996A002941D053781C0706D5254B196C2F
:1056800000293ED0996C002939D09378190705D5A7
:10569000204B196E002936D0996E89B1D3781B073B
:1056A00007D51C4BD3F880207AB3D3F8882011217A
:1056B0003AB162B6184B00221A7030BC00F066BED8
:1056C0000D21154C154D227843F8315003EBC103E1
:1056D0000830013A5860227062B630BC704704222C
:1056E0000D4C0F4D217843F8325003EBC2030830C4
:1056F0004A1E5860227062B6EFE70521E1E70921F2
:10570000DFE70822ECE70C22EAE71022E8E700BF17
:1057100060A200000080FF1F3D99FF1FC8004000ED
:1057200088004000431E032B1DD81B4A400140F057
:10573000100030B4104472B6184CE25C032A1BD837
:10574000DFE802F00212151703220D88E25410F070
:10575000080F14BFC823882343EA054308310360B8
:10576000416062B630BC704708300222EDE7052286
:10577000EBE708300422E8E7094A52F8230038B181
:10578000084A52F82300416042F8231062B6E9E764
:1057900042F82310034AF7E70080FF1F4C99FF1FD0
:1057A0001499FF1F2499FF1F2DE9F04FDFF818B35C
:1057B000DFF818A387B044E0AE4F4FEA930807EB39
:1057C000C809013ED9F8042003F00803F6B2A2F19B
:1057D000080003F0FF04002B40F0048157F8383034
:1057E0001B0C99B222F8081C002B00F0F280A24B8F
:1057F00022F8064C42F8044C53F82620002A00F008
:105800006E819E4D55F8263058609D4C45F8260017
:1058100034F81630194424F8161000F097FD0028CB
:1058200000F05681974A984B19F0080F00F10800D4
:1058300018BF1346C9F8040047F8383008238BF81E
:1058400000309BF80040E4B261071BD58F4B1B78FA
:10585000ABB18F490A7802F0FF032AB1013BDBB2FA
:105860000B70002B00F0EF848A490A7802F0FF03E6
:105870002AB1013BDBB20B70002B00F0F780042350
:105880008BF8003004F0080303F0FF02002B00F057
:10589000D6809AF80030DBB21E098DD19C08DFF863
:1058A000D49159F8342009EBC401C2F38302013AC0
:1058B00049680C2A7ED8DFE802F081817D7D7D7DFC
:1058C0007D7D477D7D7D07000868734D4A68734F75
:1058D000734E286081B240F281606A4B6A604FF07B
:1058E000010E0022814249F834303A60C9F8102094
:1058F000C9F8182086F800E05E4C00F2F480B1F59B
:10590000D06F80F07883B1F5817F00F0628300F280
:105910008782802900F0EC82822940F01E83A988CA
:1059200001F07F01042900F218835E485E4C890073
:105930000844227062700278930740F1798384F8FA
:1059400000E04FF0020ED8E2544F3A6842B3574B92
:10595000534E5749188834780D784028864645F0CC
:10596000020828BF4FF0400E002C84F00104347070
:10597000CEEB00000CBF8824C82409EBC80680B217
:1059800085F0010544EA0E447260188049F83840F9
:1059900072440D7018B9BEF1400F18BF00223A6072
:1059A0003D4B1A88B2F5A06F04D100219A78597046
:1059B000404B1A70404A012313703FE7364A15885E
:1059C00042F22100854200F0FF812E4A49F834203E
:1059D000F0E72C4A2C4B19F0080F18BF134647F874
:1059E00038302BE700F0D2FC344A354952F82630E3
:1059F000002B00F0B68158688C5D42F8260003F158
:105A00000802C9F80420032C05D8DFE804F0120FBF
:105A1000150204228A551A8819F0080F0CBF882332
:105A2000C82343EA024347F8383007E702228A5581
:105A3000F1E703228A55EEE705228A55EBE7E007F6
:105A400000F11A82210600F14982A20706D51D4AFB
:105A50001D4913780220DBB213700870E30602D5EB
:105A6000194B10221A7007B0BDE8F08F00F0FAFD54
:105A700005E700BF0080FF1FC098FF1F6C98FF1F45
:105A8000489BFF1FC8004000880040004899FF1F46
:105A9000D198FF1F5099FF1F3499FF1F6898FF1F6F
:105AA000D098FF1FC02007404099FF1F7C98FF1F20
:105AB0003C99FF1F98200740942007401499FF1F2E
:105AC0004C99FF1F88200740802007409020074006
:105AD000AB4A47F83800137801331370AEE643F849
